{
  "contractName": "Counter",
  "abi": [
    {
      "inputs": [],
      "name": "current",
      "outputs": [
        {
          "internalType": "uint256",
          "name": "",
          "type": "uint256"
        }
      ],
      "stateMutability": "view",
      "type": "function",
      "constant": true
    },
    {
      "inputs": [],
      "name": "increment",
      "outputs": [],
      "stateMutability": "nonpayable",
      "type": "function"
    },
    {
      "inputs": [],
      "name": "decrement",
      "outputs": [],
      "stateMutability": "nonpayable",
      "type": "function"
    }
  ],
  "bytecode": "0x608060405234801561001057600080fd5b506101b8806100206000396000f3fe608060405234801561001057600080fd5b50600436106100415760003560e01c80632baeceb7146100465780639fa6a6e314610050578063d09de08a1461006e575b600080fd5b61004e610078565b005b610058610093565b60405161006591906100d0565b60405180910390f35b61007661009c565b005b600160008082825461008a919061011a565b92505081905550565b60008054905090565b60016000808282546100ae919061014e565b92505081905550565b6000819050919050565b6100ca816100b7565b82525050565b60006020820190506100e560008301846100c1565b92915050565b7f4e487b7100000000000000000000000000000000000000000000000000000000600052601160045260246000fd5b6000610125826100b7565b9150610130836100b7565b9250828203905081811115610148576101476100eb565b5b92915050565b6000610159826100b7565b9150610164836100b7565b925082820190508082111561017c5761017b6100eb565b5b9291505056fea2646970667358221220ac7ed5a5c9f4ad60678975f85b95f430c810b0aae1b995b8f2899a5e21bbd2c964736f6c63430008110033",
  "immutableReferences": {},
  "source": "// SPDX-License-Identifier:MIT\npragma solidity ^0.8.17;\n\ncontract Counter {\n    uint256 private _count;\n\n    // view는 상태 변수를 변경하는게 아니라 데이터를 읽기만 하는것.\n    function current() public view returns(uint256){\n        return _count;\n    }\n\n    function increment() public {\n        _count += 1;\n    }\n\n    function decrement() public {\n        _count -= 1;\n    }\n}",
  "sourcePath": "/Users/gimhangyeol/Desktop/study/22.11/11.25/contracts/Counter.sol",
  "compiler": {
    "name": "solc",
    "version": "0.8.17+commit.8df45f5f.Emscripten.clang"
  },
  "schemaVersion": "3.4.11",
  "updatedAt": "2022-11-25T03:42:49.982Z",
  "networkType": "ethereum",
  "devdoc": {
    "kind": "dev",
    "methods": {},
    "version": 1
  },
  "userdoc": {
    "kind": "user",
    "methods": {},
    "version": 1
  }
}